{
  "_format": "hh-sol-artifact-1",
  "contractName": "MyEpicNFT",
  "sourceName": "contracts/MyEpicNFT.sol",
  "abi": [
    {
      "inputs": [],
      "stateMutability": "nonpayable",
      "type": "constructor"
    },
    {
      "anonymous": false,
      "inputs": [
        {
          "indexed": true,
          "internalType": "address",
          "name": "owner",
          "type": "address"
        },
        {
          "indexed": true,
          "internalType": "address",
          "name": "approved",
          "type": "address"
        },
        {
          "indexed": true,
          "internalType": "uint256",
          "name": "tokenId",
          "type": "uint256"
        }
      ],
      "name": "Approval",
      "type": "event"
    },
    {
      "anonymous": false,
      "inputs": [
        {
          "indexed": true,
          "internalType": "address",
          "name": "owner",
          "type": "address"
        },
        {
          "indexed": true,
          "internalType": "address",
          "name": "operator",
          "type": "address"
        },
        {
          "indexed": false,
          "internalType": "bool",
          "name": "approved",
          "type": "bool"
        }
      ],
      "name": "ApprovalForAll",
      "type": "event"
    },
    {
      "anonymous": false,
      "inputs": [
        {
          "indexed": false,
          "internalType": "address",
          "name": "sender",
          "type": "address"
        },
        {
          "indexed": false,
          "internalType": "uint256",
          "name": "tokenId",
          "type": "uint256"
        }
      ],
      "name": "NewEpicNFTMinted",
      "type": "event"
    },
    {
      "anonymous": false,
      "inputs": [
        {
          "indexed": true,
          "internalType": "address",
          "name": "from",
          "type": "address"
        },
        {
          "indexed": true,
          "internalType": "address",
          "name": "to",
          "type": "address"
        },
        {
          "indexed": true,
          "internalType": "uint256",
          "name": "tokenId",
          "type": "uint256"
        }
      ],
      "name": "Transfer",
      "type": "event"
    },
    {
      "inputs": [
        {
          "internalType": "address",
          "name": "to",
          "type": "address"
        },
        {
          "internalType": "uint256",
          "name": "tokenId",
          "type": "uint256"
        }
      ],
      "name": "approve",
      "outputs": [],
      "stateMutability": "nonpayable",
      "type": "function"
    },
    {
      "inputs": [
        {
          "internalType": "address",
          "name": "owner",
          "type": "address"
        }
      ],
      "name": "balanceOf",
      "outputs": [
        {
          "internalType": "uint256",
          "name": "",
          "type": "uint256"
        }
      ],
      "stateMutability": "view",
      "type": "function"
    },
    {
      "inputs": [
        {
          "internalType": "uint256",
          "name": "tokenId",
          "type": "uint256"
        }
      ],
      "name": "getApproved",
      "outputs": [
        {
          "internalType": "address",
          "name": "",
          "type": "address"
        }
      ],
      "stateMutability": "view",
      "type": "function"
    },
    {
      "inputs": [
        {
          "internalType": "uint256",
          "name": "tokenId",
          "type": "uint256"
        }
      ],
      "name": "getTotalNFTsMintedSoFar",
      "outputs": [
        {
          "internalType": "uint256",
          "name": "",
          "type": "uint256"
        }
      ],
      "stateMutability": "view",
      "type": "function"
    },
    {
      "inputs": [
        {
          "internalType": "address",
          "name": "owner",
          "type": "address"
        },
        {
          "internalType": "address",
          "name": "operator",
          "type": "address"
        }
      ],
      "name": "isApprovedForAll",
      "outputs": [
        {
          "internalType": "bool",
          "name": "",
          "type": "bool"
        }
      ],
      "stateMutability": "view",
      "type": "function"
    },
    {
      "inputs": [],
      "name": "makeAnEpicNFT",
      "outputs": [],
      "stateMutability": "nonpayable",
      "type": "function"
    },
    {
      "inputs": [],
      "name": "name",
      "outputs": [
        {
          "internalType": "string",
          "name": "",
          "type": "string"
        }
      ],
      "stateMutability": "view",
      "type": "function"
    },
    {
      "inputs": [
        {
          "internalType": "uint256",
          "name": "tokenId",
          "type": "uint256"
        }
      ],
      "name": "ownerOf",
      "outputs": [
        {
          "internalType": "address",
          "name": "",
          "type": "address"
        }
      ],
      "stateMutability": "view",
      "type": "function"
    },
    {
      "inputs": [
        {
          "internalType": "uint256",
          "name": "tokenId",
          "type": "uint256"
        }
      ],
      "name": "pickRandomColor",
      "outputs": [
        {
          "internalType": "string",
          "name": "",
          "type": "string"
        }
      ],
      "stateMutability": "view",
      "type": "function"
    },
    {
      "inputs": [
        {
          "internalType": "uint256",
          "name": "tokenId",
          "type": "uint256"
        }
      ],
      "name": "pickRandomFirstWord",
      "outputs": [
        {
          "internalType": "string",
          "name": "",
          "type": "string"
        }
      ],
      "stateMutability": "view",
      "type": "function"
    },
    {
      "inputs": [
        {
          "internalType": "uint256",
          "name": "tokenId",
          "type": "uint256"
        }
      ],
      "name": "pickRandomSecondWord",
      "outputs": [
        {
          "internalType": "string",
          "name": "",
          "type": "string"
        }
      ],
      "stateMutability": "view",
      "type": "function"
    },
    {
      "inputs": [
        {
          "internalType": "uint256",
          "name": "tokenId",
          "type": "uint256"
        }
      ],
      "name": "pickRandomThirdWord",
      "outputs": [
        {
          "internalType": "string",
          "name": "",
          "type": "string"
        }
      ],
      "stateMutability": "view",
      "type": "function"
    },
    {
      "inputs": [
        {
          "internalType": "address",
          "name": "from",
          "type": "address"
        },
        {
          "internalType": "address",
          "name": "to",
          "type": "address"
        },
        {
          "internalType": "uint256",
          "name": "tokenId",
          "type": "uint256"
        }
      ],
      "name": "safeTransferFrom",
      "outputs": [],
      "stateMutability": "nonpayable",
      "type": "function"
    },
    {
      "inputs": [
        {
          "internalType": "address",
          "name": "from",
          "type": "address"
        },
        {
          "internalType": "address",
          "name": "to",
          "type": "address"
        },
        {
          "internalType": "uint256",
          "name": "tokenId",
          "type": "uint256"
        },
        {
          "internalType": "bytes",
          "name": "data",
          "type": "bytes"
        }
      ],
      "name": "safeTransferFrom",
      "outputs": [],
      "stateMutability": "nonpayable",
      "type": "function"
    },
    {
      "inputs": [
        {
          "internalType": "address",
          "name": "operator",
          "type": "address"
        },
        {
          "internalType": "bool",
          "name": "approved",
          "type": "bool"
        }
      ],
      "name": "setApprovalForAll",
      "outputs": [],
      "stateMutability": "nonpayable",
      "type": "function"
    },
    {
      "inputs": [
        {
          "internalType": "bytes4",
          "name": "interfaceId",
          "type": "bytes4"
        }
      ],
      "name": "supportsInterface",
      "outputs": [
        {
          "internalType": "bool",
          "name": "",
          "type": "bool"
        }
      ],
      "stateMutability": "view",
      "type": "function"
    },
    {
      "inputs": [],
      "name": "symbol",
      "outputs": [
        {
          "internalType": "string",
          "name": "",
          "type": "string"
        }
      ],
      "stateMutability": "view",
      "type": "function"
    },
    {
      "inputs": [
        {
          "internalType": "uint256",
          "name": "tokenId",
          "type": "uint256"
        }
      ],
      "name": "tokenURI",
      "outputs": [
        {
          "internalType": "string",
          "name": "",
          "type": "string"
        }
      ],
      "stateMutability": "view",
      "type": "function"
    },
    {
      "inputs": [
        {
          "internalType": "address",
          "name": "from",
          "type": "address"
        },
        {
          "internalType": "address",
          "name": "to",
          "type": "address"
        },
        {
          "internalType": "uint256",
          "name": "tokenId",
          "type": "uint256"
        }
      ],
      "name": "transferFrom",
      "outputs": [],
      "stateMutability": "nonpayable",
      "type": "function"
    }
  ],
  "bytecode": "0x608060405260405180610100016040528060d381526020016200493d60d39139600890816200002f919062000b77565b5060405180608001604052806056815260200162004a1060569139600990816200005a919062000b77565b506040518060c001604052806040518060400160405280600581526020017f507275646500000000000000000000000000000000000000000000000000000081525081526020016040518060400160405280600681526020017f546865736973000000000000000000000000000000000000000000000000000081525081526020016040518060400160405280600a81526020017f496d706572736f6e616c0000000000000000000000000000000000000000000081525081526020016040518060400160405280600681526020017f527562626c65000000000000000000000000000000000000000000000000000081525081526020016040518060400160405280600681526020017f53706c696365000000000000000000000000000000000000000000000000000081525081526020016040518060400160405280600981526020017f536e617263686973740000000000000000000000000000000000000000000000815250815250600a906006620001d892919062000810565b506040518060c001604052806040518060400160405280600781526020017f4f7574636173740000000000000000000000000000000000000000000000000081525081526020016040518060400160405280600781526020017f497374686d75730000000000000000000000000000000000000000000000000081525081526020016040518060400160405280600681526020017f5061726c6579000000000000000000000000000000000000000000000000000081525081526020016040518060400160405280600681526020017f576974686572000000000000000000000000000000000000000000000000000081525081526020016040518060400160405280600a81526020017f436170726963696f75730000000000000000000000000000000000000000000081525081526020016040518060400160405280600a81526020017f42656e6566696369616c00000000000000000000000000000000000000000000815250815250600b9060066200035692919062000810565b506040518060c001604052806040518060400160405280600981526020017f416e616c6765736963000000000000000000000000000000000000000000000081525081526020016040518060400160405280600881526020017f50726f6c6f67756500000000000000000000000000000000000000000000000081525081526020016040518060400160405280600c81526020017f44697370656e736174696f6e000000000000000000000000000000000000000081525081526020016040518060400160405280600b81526020017f426572656176656d656e7400000000000000000000000000000000000000000081525081526020016040518060400160405280600781526020017f52616d706172740000000000000000000000000000000000000000000000000081525081526020016040518060400160405280600681526020017f5472656d6f720000000000000000000000000000000000000000000000000000815250815250600c906006620004d492919062000810565b506040518060c001604052806040518060400160405280600381526020017f726564000000000000000000000000000000000000000000000000000000000081525081526020016040518060400160405280600781526020017f233038433241380000000000000000000000000000000000000000000000000081525081526020016040518060400160405280600581526020017f626c61636b00000000000000000000000000000000000000000000000000000081525081526020016040518060400160405280600681526020017f79656c6c6f77000000000000000000000000000000000000000000000000000081525081526020016040518060400160405280600481526020017f626c75650000000000000000000000000000000000000000000000000000000081525081526020016040518060400160405280600581526020017f677265656e000000000000000000000000000000000000000000000000000000815250815250600d9060066200065292919062000810565b503480156200066057600080fd5b506040518060400160405280600981526020017f5371756172654e465400000000000000000000000000000000000000000000008152506040518060400160405280600681526020017f53515541524500000000000000000000000000000000000000000000000000008152508160009081620006de919062000b77565b508060019081620006f0919062000b77565b5050506200073e6040518060400160405280601e81526020017f54686973206973206d79204e465420636f6e74726163742e20576f61682100008152506200074460201b620011331760201c565b62000d11565b620007e4816040516024016200075b919062000ced565b6040516020818303038152906040527f41304fac000000000000000000000000000000000000000000000000000000007bffffffffffffffffffffffffffffffffffffffffffffffffffffffff19166020820180517bffffffffffffffffffffffffffffffffffffffffffffffffffffffff8381831617835250505050620007e760201b60201c565b50565b60008151905060006a636f6e736f6c652e6c6f679050602083016000808483855afa5050505050565b8280548282559060005260206000209081019282156200085d579160200282015b828111156200085c5782518290816200084b919062000b77565b509160200191906001019062000831565b5b5090506200086c919062000870565b5090565b5b808211156200089457600081816200088a919062000898565b5060010162000871565b5090565b508054620008a69062000966565b6000825580601f10620008ba5750620008db565b601f016020900490600052602060002090810190620008da9190620008de565b5b50565b5b80821115620008f9576000816000905550600101620008df565b5090565b600081519050919050565b7f4e487b7100000000000000000000000000000000000000000000000000000000600052604160045260246000fd5b7f4e487b7100000000000000000000000000000000000000000000000000000000600052602260045260246000fd5b600060028204905060018216806200097f57607f821691505b60208210810362000995576200099462000937565b5b50919050565b60008190508160005260206000209050919050565b60006020601f8301049050919050565b600082821b905092915050565b600060088302620009ff7fffffffffffffffffffffffffffffffffffffffffffffffffffffffffffffffff82620009c0565b62000a0b8683620009c0565b95508019841693508086168417925050509392505050565b6000819050919050565b6000819050919050565b600062000a5862000a5262000a4c8462000a23565b62000a2d565b62000a23565b9050919050565b6000819050919050565b62000a748362000a37565b62000a8c62000a838262000a5f565b848454620009cd565b825550505050565b600090565b62000aa362000a94565b62000ab081848462000a69565b505050565b5b8181101562000ad85762000acc60008262000a99565b60018101905062000ab6565b5050565b601f82111562000b275762000af1816200099b565b62000afc84620009b0565b8101602085101562000b0c578190505b62000b2462000b1b85620009b0565b83018262000ab5565b50505b505050565b600082821c905092915050565b600062000b4c6000198460080262000b2c565b1980831691505092915050565b600062000b67838362000b39565b9150826002028217905092915050565b62000b8282620008fd565b67ffffffffffffffff81111562000b9e5762000b9d62000908565b5b62000baa825462000966565b62000bb782828562000adc565b600060209050601f83116001811462000bef576000841562000bda578287015190505b62000be6858262000b59565b86555062000c56565b601f19841662000bff866200099b565b60005b8281101562000c295784890151825560018201915060208501945060208101905062000c02565b8683101562000c49578489015162000c45601f89168262000b39565b8355505b6001600288020188555050505b505050505050565b600082825260208201905092915050565b60005b8381101562000c8f57808201518184015260208101905062000c72565b60008484015250505050565b6000601f19601f8301169050919050565b600062000cb982620008fd565b62000cc5818562000c5e565b935062000cd781856020860162000c6f565b62000ce28162000c9b565b840191505092915050565b6000602082019050818103600083015262000d09818462000cac565b905092915050565b613c1c8062000d216000396000f3fe608060405234801561001057600080fd5b50600436106101215760003560e01c806370a08231116100ad578063ba027aac11610071578063ba027aac1461033e578063c575757a1461036e578063c87b56dd1461039e578063de9d132f146103ce578063e985e9c5146103d857610121565b806370a082311461028857806395d89b41146102b8578063a22cb465146102d6578063b187301f146102f2578063b88d4fde1461032257610121565b806323b872dd116100f457806323b872dd146101c05780632de38d68146101dc57806342842e0e1461020c578063514dc8c6146102285780636352211e1461025857610121565b806301ffc9a71461012657806306fdde0314610156578063081812fc14610174578063095ea7b3146101a4575b600080fd5b610140600480360381019061013b91906124b1565b610408565b60405161014d91906124f9565b60405180910390f35b61015e6104ea565b60405161016b91906125a4565b60405180910390f35b61018e600480360381019061018991906125fc565b61057c565b60405161019b919061266a565b60405180910390f35b6101be60048036038101906101b991906126b1565b6105c2565b005b6101da60048036038101906101d591906126f1565b6106d9565b005b6101f660048036038101906101f191906125fc565b610739565b60405161020391906125a4565b60405180910390f35b610226600480360381019061022191906126f1565b610831565b005b610242600480360381019061023d91906125fc565b610851565b60405161024f91906125a4565b60405180910390f35b610272600480360381019061026d91906125fc565b610949565b60405161027f919061266a565b60405180910390f35b6102a2600480360381019061029d9190612744565b6109cf565b6040516102af9190612780565b60405180910390f35b6102c0610a86565b6040516102cd91906125a4565b60405180910390f35b6102f060048036038101906102eb91906127c7565b610b18565b005b61030c600480360381019061030791906125fc565b610b2e565b60405161031991906125a4565b60405180910390f35b61033c6004803603810190610337919061293c565b610c26565b005b610358600480360381019061035391906125fc565b610c88565b6040516103659190612780565b60405180910390f35b610388600480360381019061038391906125fc565b610c9b565b60405161039591906125a4565b60405180910390f35b6103b860048036038101906103b391906125fc565b610d93565b6040516103c591906125a4565b60405180910390f35b6103d6610ea5565b005b6103f260048036038101906103ed91906129bf565b61109f565b6040516103ff91906124f9565b60405180910390f35b60007f80ac58cd000000000000000000000000000000000000000000000000000000007bffffffffffffffffffffffffffffffffffffffffffffffffffffffff1916827bffffffffffffffffffffffffffffffffffffffffffffffffffffffff191614806104d357507f5b5e139f000000000000000000000000000000000000000000000000000000007bffffffffffffffffffffffffffffffffffffffffffffffffffffffff1916827bffffffffffffffffffffffffffffffffffffffffffffffffffffffff1916145b806104e357506104e2826111cc565b5b9050919050565b6060600080546104f990612a2e565b80601f016020809104026020016040519081016040528092919081815260200182805461052590612a2e565b80156105725780601f1061054757610100808354040283529160200191610572565b820191906000526020600020905b81548152906001019060200180831161055557829003601f168201915b5050505050905090565b600061058782611236565b6004600083815260200190815260200160002060009054906101000a900473ffffffffffffffffffffffffffffffffffffffff169050919050565b60006105cd82610949565b90508073ffffffffffffffffffffffffffffffffffffffff168373ffffffffffffffffffffffffffffffffffffffff160361063d576040517f08c379a000000000000000000000000000000000000000000000000000000000815260040161063490612ad1565b60405180910390fd5b8073ffffffffffffffffffffffffffffffffffffffff1661065c611281565b73ffffffffffffffffffffffffffffffffffffffff16148061068b575061068a81610685611281565b61109f565b5b6106ca576040517f08c379a00000000000000000000000000000000000000000000000000000000081526004016106c190612b63565b60405180910390fd5b6106d48383611289565b505050565b6106ea6106e4611281565b82611342565b610729576040517f08c379a000000000000000000000000000000000000000000000000000000000815260040161072090612bf5565b60405180910390fd5b6107348383836113d7565b505050565b6060600061076d610749846116d0565b6040516020016107599190612c9d565b60405160208183030381529060405261179e565b9050600a80549050816107809190612cee565b9050600a818154811061079657610795612d1f565b5b9060005260206000200180546107ab90612a2e565b80601f01602080910402602001604051908101604052809291908181526020018280546107d790612a2e565b80156108245780601f106107f957610100808354040283529160200191610824565b820191906000526020600020905b81548152906001019060200180831161080757829003601f168201915b5050505050915050919050565b61084c83838360405180602001604052806000815250610c26565b505050565b60606000610885610861846116d0565b6040516020016108719190612d9a565b60405160208183030381529060405261179e565b9050600d80549050816108989190612cee565b9050600d81815481106108ae576108ad612d1f565b5b9060005260206000200180546108c390612a2e565b80601f01602080910402602001604051908101604052809291908181526020018280546108ef90612a2e565b801561093c5780601f106109115761010080835404028352916020019161093c565b820191906000526020600020905b81548152906001019060200180831161091f57829003601f168201915b5050505050915050919050565b600080610955836117d1565b9050600073ffffffffffffffffffffffffffffffffffffffff168173ffffffffffffffffffffffffffffffffffffffff16036109c6576040517f08c379a00000000000000000000000000000000000000000000000000000000081526004016109bd90612e08565b60405180910390fd5b80915050919050565b60008073ffffffffffffffffffffffffffffffffffffffff168273ffffffffffffffffffffffffffffffffffffffff1603610a3f576040517f08c379a0000000000000000000000000000000000000000000000000000000008152600401610a3690612e9a565b60405180910390fd5b600360008373ffffffffffffffffffffffffffffffffffffffff1673ffffffffffffffffffffffffffffffffffffffff168152602001908152602001600020549050919050565b606060018054610a9590612a2e565b80601f0160208091040260200160405190810160405280929190818152602001828054610ac190612a2e565b8015610b0e5780601f10610ae357610100808354040283529160200191610b0e565b820191906000526020600020905b815481529060010190602001808311610af157829003601f168201915b5050505050905090565b610b2a610b23611281565b838361180e565b5050565b60606000610b62610b3e846116d0565b604051602001610b4e9190612f06565b60405160208183030381529060405261179e565b9050600b8054905081610b759190612cee565b9050600b8181548110610b8b57610b8a612d1f565b5b906000526020600020018054610ba090612a2e565b80601f0160208091040260200160405190810160405280929190818152602001828054610bcc90612a2e565b8015610c195780601f10610bee57610100808354040283529160200191610c19565b820191906000526020600020905b815481529060010190602001808311610bfc57829003601f168201915b5050505050915050919050565b610c37610c31611281565b83611342565b610c76576040517f08c379a0000000000000000000000000000000000000000000000000000000008152600401610c6d90612bf5565b60405180910390fd5b610c828484848461197a565b50505050565b6000610c9460076119d6565b9050919050565b60606000610ccf610cab846116d0565b604051602001610cbb9190612f74565b60405160208183030381529060405261179e565b9050600c8054905081610ce29190612cee565b9050600c8181548110610cf857610cf7612d1f565b5b906000526020600020018054610d0d90612a2e565b80601f0160208091040260200160405190810160405280929190818152602001828054610d3990612a2e565b8015610d865780601f10610d5b57610100808354040283529160200191610d86565b820191906000526020600020905b815481529060010190602001808311610d6957829003601f168201915b5050505050915050919050565b6060610d9e82611236565b6000600660008481526020019081526020016000208054610dbe90612a2e565b80601f0160208091040260200160405190810160405280929190818152602001828054610dea90612a2e565b8015610e375780601f10610e0c57610100808354040283529160200191610e37565b820191906000526020600020905b815481529060010190602001808311610e1a57829003601f168201915b505050505090506000610e486119e4565b90506000815103610e5d578192505050610ea0565b600082511115610e92578082604051602001610e7a929190612f96565b60405160208183030381529060405292505050610ea0565b610e9b846119fb565b925050505b919050565b6000610eb160076119d6565b90506000610ebe82610739565b90506000610ecb83610b2e565b90506000610ed884610c9b565b90506000838383604051602001610ef193929190612fba565b60405160208183030381529060405290506000610f0d86610851565b90506000600882600985604051602001610f2a94939291906130cf565b60405160208183030381529060405290506000610f6f84610f4a84611a63565b604051602001610f5b92919061326e565b604051602081830303815290604052611a63565b9050600081604051602001610f8491906132ff565b6040516020818303038152906040529050610fd36040518060400160405280601581526020017f0a2d2d2d2d2d2d2d2d2d2d2d2d2d2d2d2d2d2d2d2d0000000000000000000000815250611133565b610fdc81611133565b61101a6040518060400160405280601581526020017f2d2d2d2d2d2d2d2d2d2d2d2d2d2d2d2d2d2d2d2d0a0000000000000000000000815250611133565b611024338a611bfa565b61102e8982611c18565b6110386007611c85565b61105b604051806060016040528060258152602001613b82602591398a33611c9b565b7febb98688741ffa4c7589bf325de30cf7becb63de567842e1ccdb6cb949fdc82c338a60405161108c929190613321565b60405180910390a1505050505050505050565b6000600560008473ffffffffffffffffffffffffffffffffffffffff1673ffffffffffffffffffffffffffffffffffffffff16815260200190815260200160002060008373ffffffffffffffffffffffffffffffffffffffff1673ffffffffffffffffffffffffffffffffffffffff16815260200190815260200160002060009054906101000a900460ff16905092915050565b6111c98160405160240161114791906125a4565b6040516020818303038152906040527f41304fac000000000000000000000000000000000000000000000000000000007bffffffffffffffffffffffffffffffffffffffffffffffffffffffff19166020820180517bffffffffffffffffffffffffffffffffffffffffffffffffffffffff8381831617835250505050611d3a565b50565b60007f01ffc9a7000000000000000000000000000000000000000000000000000000007bffffffffffffffffffffffffffffffffffffffffffffffffffffffff1916827bffffffffffffffffffffffffffffffffffffffffffffffffffffffff1916149050919050565b61123f81611d63565b61127e576040517f08c379a000000000000000000000000000000000000000000000000000000000815260040161127590612e08565b60405180910390fd5b50565b600033905090565b816004600083815260200190815260200160002060006101000a81548173ffffffffffffffffffffffffffffffffffffffff021916908373ffffffffffffffffffffffffffffffffffffffff160217905550808273ffffffffffffffffffffffffffffffffffffffff166112fc83610949565b73ffffffffffffffffffffffffffffffffffffffff167f8c5be1e5ebec7d5bd14f71427d1e84f3dd0314c0f7b2291e5b200ac8c7c3b92560405160405180910390a45050565b60008061134e83610949565b90508073ffffffffffffffffffffffffffffffffffffffff168473ffffffffffffffffffffffffffffffffffffffff161480611390575061138f818561109f565b5b806113ce57508373ffffffffffffffffffffffffffffffffffffffff166113b68461057c565b73ffffffffffffffffffffffffffffffffffffffff16145b91505092915050565b8273ffffffffffffffffffffffffffffffffffffffff166113f782610949565b73ffffffffffffffffffffffffffffffffffffffff161461144d576040517f08c379a0000000000000000000000000000000000000000000000000000000008152600401611444906133bc565b60405180910390fd5b600073ffffffffffffffffffffffffffffffffffffffff168273ffffffffffffffffffffffffffffffffffffffff16036114bc576040517f08c379a00000000000000000000000000000000000000000000000000000000081526004016114b39061344e565b60405180910390fd5b6114c98383836001611da4565b8273ffffffffffffffffffffffffffffffffffffffff166114e982610949565b73ffffffffffffffffffffffffffffffffffffffff161461153f576040517f08c379a0000000000000000000000000000000000000000000000000000000008152600401611536906133bc565b60405180910390fd5b6004600082815260200190815260200160002060006101000a81549073ffffffffffffffffffffffffffffffffffffffff02191690556001600360008573ffffffffffffffffffffffffffffffffffffffff1673ffffffffffffffffffffffffffffffffffffffff168152602001908152602001600020600082825403925050819055506001600360008473ffffffffffffffffffffffffffffffffffffffff1673ffffffffffffffffffffffffffffffffffffffff16815260200190815260200160002060008282540192505081905550816002600083815260200190815260200160002060006101000a81548173ffffffffffffffffffffffffffffffffffffffff021916908373ffffffffffffffffffffffffffffffffffffffff160217905550808273ffffffffffffffffffffffffffffffffffffffff168473ffffffffffffffffffffffffffffffffffffffff167fddf252ad1be2c89b69c2b068fc378daa952ba7f163c4a11628f55a4df523b3ef60405160405180910390a46116cb8383836001611eca565b505050565b6060600060016116df84611ed0565b01905060008167ffffffffffffffff8111156116fe576116fd612811565b5b6040519080825280601f01601f1916602001820160405280156117305781602001600182028036833780820191505090505b509050600082602001820190505b600115611793578080600190039150507f3031323334353637383961626364656600000000000000000000000000000000600a86061a8153600a858161178757611786612cbf565b5b0494506000850361173e575b819350505050919050565b6000816040516020016117b1919061346e565b6040516020818303038152906040528051906020012060001c9050919050565b60006002600083815260200190815260200160002060009054906101000a900473ffffffffffffffffffffffffffffffffffffffff169050919050565b8173ffffffffffffffffffffffffffffffffffffffff168373ffffffffffffffffffffffffffffffffffffffff160361187c576040517f08c379a0000000000000000000000000000000000000000000000000000000008152600401611873906134d1565b60405180910390fd5b80600560008573ffffffffffffffffffffffffffffffffffffffff1673ffffffffffffffffffffffffffffffffffffffff16815260200190815260200160002060008473ffffffffffffffffffffffffffffffffffffffff1673ffffffffffffffffffffffffffffffffffffffff16815260200190815260200160002060006101000a81548160ff0219169083151502179055508173ffffffffffffffffffffffffffffffffffffffff168373ffffffffffffffffffffffffffffffffffffffff167f17307eab39ab6107e8899845ad3d59bd9653f200f220920489ca2b5937696c318360405161196d91906124f9565b60405180910390a3505050565b6119858484846113d7565b61199184848484612023565b6119d0576040517f08c379a00000000000000000000000000000000000000000000000000000000081526004016119c790613563565b60405180910390fd5b50505050565b600081600001549050919050565b606060405180602001604052806000815250905090565b6060611a0682611236565b6000611a106119e4565b90506000815111611a305760405180602001604052806000815250611a5b565b80611a3a846116d0565b604051602001611a4b929190612f96565b6040516020818303038152906040525b915050919050565b606060008251905060008103611a8b5760405180602001604052806000815250915050611bf5565b60006003600283611a9c91906135b2565b611aa691906135e6565b6004611ab29190613617565b90506000602082611ac391906135b2565b67ffffffffffffffff811115611adc57611adb612811565b5b6040519080825280601f01601f191660200182016040528015611b0e5781602001600182028036833780820191505090505b5090506000604051806060016040528060408152602001613ba7604091399050600181016020830160005b86811015611bb25760038101905062ffffff818a015116603f8160121c168401518060081b905060ff603f83600c1c1686015116810190508060081b905060ff603f8360061c1686015116810190508060081b905060ff603f831686015116810190508060e01b90508084526004840193505050611b39565b506003860660018114611bcc5760028114611bdc57611be7565b613d3d60f01b6002830352611be7565b603d60f81b60018303525b508484525050819450505050505b919050565b611c148282604051806020016040528060008152506121aa565b5050565b611c2182611d63565b611c60576040517f08c379a0000000000000000000000000000000000000000000000000000000008152600401611c57906136cb565b60405180910390fd5b80600660008481526020019081526020016000209081611c809190613882565b505050565b6001816000016000828254019250508190555050565b611d35838383604051602401611cb393929190613954565b6040516020818303038152906040527f1c7ec448000000000000000000000000000000000000000000000000000000007bffffffffffffffffffffffffffffffffffffffffffffffffffffffff19166020820180517bffffffffffffffffffffffffffffffffffffffffffffffffffffffff8381831617835250505050611d3a565b505050565b60008151905060006a636f6e736f6c652e6c6f679050602083016000808483855afa5050505050565b60008073ffffffffffffffffffffffffffffffffffffffff16611d85836117d1565b73ffffffffffffffffffffffffffffffffffffffff1614159050919050565b6001811115611ec457600073ffffffffffffffffffffffffffffffffffffffff168473ffffffffffffffffffffffffffffffffffffffff1614611e385780600360008673ffffffffffffffffffffffffffffffffffffffff1673ffffffffffffffffffffffffffffffffffffffff1681526020019081526020016000206000828254611e309190613992565b925050819055505b600073ffffffffffffffffffffffffffffffffffffffff168373ffffffffffffffffffffffffffffffffffffffff1614611ec35780600360008573ffffffffffffffffffffffffffffffffffffffff1673ffffffffffffffffffffffffffffffffffffffff1681526020019081526020016000206000828254611ebb91906135b2565b925050819055505b5b50505050565b50505050565b600080600090507a184f03e93ff9f4daa797ed6e38ed64bf6a1f0100000000000000008310611f2e577a184f03e93ff9f4daa797ed6e38ed64bf6a1f0100000000000000008381611f2457611f23612cbf565b5b0492506040810190505b6d04ee2d6d415b85acef81000000008310611f6b576d04ee2d6d415b85acef81000000008381611f6157611f60612cbf565b5b0492506020810190505b662386f26fc100008310611f9a57662386f26fc100008381611f9057611f8f612cbf565b5b0492506010810190505b6305f5e1008310611fc3576305f5e1008381611fb957611fb8612cbf565b5b0492506008810190505b6127108310611fe8576127108381611fde57611fdd612cbf565b5b0492506004810190505b6064831061200b576064838161200157612000612cbf565b5b0492506002810190505b600a831061201a576001810190505b80915050919050565b60006120448473ffffffffffffffffffffffffffffffffffffffff16612205565b1561219d578373ffffffffffffffffffffffffffffffffffffffff1663150b7a0261206d611281565b8786866040518563ffffffff1660e01b815260040161208f9493929190613a1b565b6020604051808303816000875af19250505080156120cb57506040513d601f19601f820116820180604052508101906120c89190613a7c565b60015b61214d573d80600081146120fb576040519150601f19603f3d011682016040523d82523d6000602084013e612100565b606091505b506000815103612145576040517f08c379a000000000000000000000000000000000000000000000000000000000815260040161213c90613563565b60405180910390fd5b805181602001fd5b63150b7a0260e01b7bffffffffffffffffffffffffffffffffffffffffffffffffffffffff1916817bffffffffffffffffffffffffffffffffffffffffffffffffffffffff1916149150506121a2565b600190505b949350505050565b6121b48383612228565b6121c16000848484612023565b612200576040517f08c379a00000000000000000000000000000000000000000000000000000000081526004016121f790613563565b60405180910390fd5b505050565b6000808273ffffffffffffffffffffffffffffffffffffffff163b119050919050565b600073ffffffffffffffffffffffffffffffffffffffff168273ffffffffffffffffffffffffffffffffffffffff1603612297576040517f08c379a000000000000000000000000000000000000000000000000000000000815260040161228e90613af5565b60405180910390fd5b6122a081611d63565b156122e0576040517f08c379a00000000000000000000000000000000000000000000000000000000081526004016122d790613b61565b60405180910390fd5b6122ee600083836001611da4565b6122f781611d63565b15612337576040517f08c379a000000000000000000000000000000000000000000000000000000000815260040161232e90613b61565b60405180910390fd5b6001600360008473ffffffffffffffffffffffffffffffffffffffff1673ffffffffffffffffffffffffffffffffffffffff16815260200190815260200160002060008282540192505081905550816002600083815260200190815260200160002060006101000a81548173ffffffffffffffffffffffffffffffffffffffff021916908373ffffffffffffffffffffffffffffffffffffffff160217905550808273ffffffffffffffffffffffffffffffffffffffff16600073ffffffffffffffffffffffffffffffffffffffff167fddf252ad1be2c89b69c2b068fc378daa952ba7f163c4a11628f55a4df523b3ef60405160405180910390a4612441600083836001611eca565b5050565b6000604051905090565b600080fd5b600080fd5b60007fffffffff0000000000000000000000000000000000000000000000000000000082169050919050565b61248e81612459565b811461249957600080fd5b50565b6000813590506124ab81612485565b92915050565b6000602082840312156124c7576124c661244f565b5b60006124d58482850161249c565b91505092915050565b60008115159050919050565b6124f3816124de565b82525050565b600060208201905061250e60008301846124ea565b92915050565b600081519050919050565b600082825260208201905092915050565b60005b8381101561254e578082015181840152602081019050612533565b60008484015250505050565b6000601f19601f8301169050919050565b600061257682612514565b612580818561251f565b9350612590818560208601612530565b6125998161255a565b840191505092915050565b600060208201905081810360008301526125be818461256b565b905092915050565b6000819050919050565b6125d9816125c6565b81146125e457600080fd5b50565b6000813590506125f6816125d0565b92915050565b6000602082840312156126125761261161244f565b5b6000612620848285016125e7565b91505092915050565b600073ffffffffffffffffffffffffffffffffffffffff82169050919050565b600061265482612629565b9050919050565b61266481612649565b82525050565b600060208201905061267f600083018461265b565b92915050565b61268e81612649565b811461269957600080fd5b50565b6000813590506126ab81612685565b92915050565b600080604083850312156126c8576126c761244f565b5b60006126d68582860161269c565b92505060206126e7858286016125e7565b9150509250929050565b60008060006060848603121561270a5761270961244f565b5b60006127188682870161269c565b93505060206127298682870161269c565b925050604061273a868287016125e7565b9150509250925092565b60006020828403121561275a5761275961244f565b5b60006127688482850161269c565b91505092915050565b61277a816125c6565b82525050565b60006020820190506127956000830184612771565b92915050565b6127a4816124de565b81146127af57600080fd5b50565b6000813590506127c18161279b565b92915050565b600080604083850312156127de576127dd61244f565b5b60006127ec8582860161269c565b92505060206127fd858286016127b2565b9150509250929050565b600080fd5b600080fd5b7f4e487b7100000000000000000000000000000000000000000000000000000000600052604160045260246000fd5b6128498261255a565b810181811067ffffffffffffffff8211171561286857612867612811565b5b80604052505050565b600061287b612445565b90506128878282612840565b919050565b600067ffffffffffffffff8211156128a7576128a6612811565b5b6128b08261255a565b9050602081019050919050565b82818337600083830152505050565b60006128df6128da8461288c565b612871565b9050828152602081018484840111156128fb576128fa61280c565b5b6129068482856128bd565b509392505050565b600082601f83011261292357612922612807565b5b81356129338482602086016128cc565b91505092915050565b600080600080608085870312156129565761295561244f565b5b60006129648782880161269c565b94505060206129758782880161269c565b9350506040612986878288016125e7565b925050606085013567ffffffffffffffff8111156129a7576129a6612454565b5b6129b38782880161290e565b91505092959194509250565b600080604083850312156129d6576129d561244f565b5b60006129e48582860161269c565b92505060206129f58582860161269c565b9150509250929050565b7f4e487b7100000000000000000000000000000000000000000000000000000000600052602260045260246000fd5b60006002820490506001821680612a4657607f821691505b602082108103612a5957612a586129ff565b5b50919050565b7f4552433732313a20617070726f76616c20746f2063757272656e74206f776e6560008201527f7200000000000000000000000000000000000000000000000000000000000000602082015250565b6000612abb60218361251f565b9150612ac682612a5f565b604082019050919050565b60006020820190508181036000830152612aea81612aae565b9050919050565b7f4552433732313a20617070726f76652063616c6c6572206973206e6f7420746f60008201527f6b656e206f776e6572206f7220617070726f76656420666f7220616c6c000000602082015250565b6000612b4d603d8361251f565b9150612b5882612af1565b604082019050919050565b60006020820190508181036000830152612b7c81612b40565b9050919050565b7f4552433732313a2063616c6c6572206973206e6f7420746f6b656e206f776e6560008201527f72206f7220617070726f76656400000000000000000000000000000000000000602082015250565b6000612bdf602d8361251f565b9150612bea82612b83565b604082019050919050565b60006020820190508181036000830152612c0e81612bd2565b9050919050565b600081905092915050565b7f46495253545f574f524400000000000000000000000000000000000000000000600082015250565b6000612c56600a83612c15565b9150612c6182612c20565b600a82019050919050565b6000612c7782612514565b612c818185612c15565b9350612c91818560208601612530565b80840191505092915050565b6000612ca882612c49565b9150612cb48284612c6c565b915081905092915050565b7f4e487b7100000000000000000000000000000000000000000000000000000000600052601260045260246000fd5b6000612cf9826125c6565b9150612d04836125c6565b925082612d1457612d13612cbf565b5b828206905092915050565b7f4e487b7100000000000000000000000000000000000000000000000000000000600052603260045260246000fd5b7f434f4c4f52000000000000000000000000000000000000000000000000000000600082015250565b6000612d84600583612c15565b9150612d8f82612d4e565b600582019050919050565b6000612da582612d77565b9150612db18284612c6c565b915081905092915050565b7f4552433732313a20696e76616c696420746f6b656e2049440000000000000000600082015250565b6000612df260188361251f565b9150612dfd82612dbc565b602082019050919050565b60006020820190508181036000830152612e2181612de5565b9050919050565b7f4552433732313a2061646472657373207a65726f206973206e6f74206120766160008201527f6c6964206f776e65720000000000000000000000000000000000000000000000602082015250565b6000612e8460298361251f565b9150612e8f82612e28565b604082019050919050565b60006020820190508181036000830152612eb381612e77565b9050919050565b7f5345434f4e445f574f5244000000000000000000000000000000000000000000600082015250565b6000612ef0600b83612c15565b9150612efb82612eba565b600b82019050919050565b6000612f1182612ee3565b9150612f1d8284612c6c565b915081905092915050565b7f54484952445f574f524400000000000000000000000000000000000000000000600082015250565b6000612f5e600a83612c15565b9150612f6982612f28565b600a82019050919050565b6000612f7f82612f51565b9150612f8b8284612c6c565b915081905092915050565b6000612fa28285612c6c565b9150612fae8284612c6c565b91508190509392505050565b6000612fc68286612c6c565b9150612fd28285612c6c565b9150612fde8284612c6c565b9150819050949350505050565b60008190508160005260206000209050919050565b6000815461300d81612a2e565b6130178186612c15565b9450600182166000811461303257600181146130475761307a565b60ff198316865281151582028601935061307a565b61305085612feb565b60005b8381101561307257815481890152600182019150602081019050613053565b838801955050505b50505092915050565b7f3c2f746578743e3c2f7376673e00000000000000000000000000000000000000600082015250565b60006130b9600d83612c15565b91506130c482613083565b600d82019050919050565b60006130db8287613000565b91506130e78286612c6c565b91506130f38285613000565b91506130ff8284612c6c565b915061310a826130ac565b915081905095945050505050565b7f7b226e616d65223a202200000000000000000000000000000000000000000000600082015250565b600061314e600a83612c15565b915061315982613118565b600a82019050919050565b7f222c20226465736372697074696f6e223a20224120686967686c79206163636c60008201527f61696d656420636f6c6c656374696f6e206f6620737175617265732e222c202260208201527f696d616765223a2022646174613a696d6167652f7376672b786d6c3b6261736560408201527f36342c0000000000000000000000000000000000000000000000000000000000606082015250565b600061320c606383612c15565b915061321782613164565b606382019050919050565b7f227d000000000000000000000000000000000000000000000000000000000000600082015250565b6000613258600283612c15565b915061326382613222565b600282019050919050565b600061327982613141565b91506132858285612c6c565b9150613290826131ff565b915061329c8284612c6c565b91506132a78261324b565b91508190509392505050565b7f646174613a6170706c69636174696f6e2f6a736f6e3b6261736536342c000000600082015250565b60006132e9601d83612c15565b91506132f4826132b3565b601d82019050919050565b600061330a826132dc565b91506133168284612c6c565b915081905092915050565b6000604082019050613336600083018561265b565b6133436020830184612771565b9392505050565b7f4552433732313a207472616e736665722066726f6d20696e636f72726563742060008201527f6f776e6572000000000000000000000000000000000000000000000000000000602082015250565b60006133a660258361251f565b91506133b18261334a565b604082019050919050565b600060208201905081810360008301526133d581613399565b9050919050565b7f4552433732313a207472616e7366657220746f20746865207a65726f2061646460008201527f7265737300000000000000000000000000000000000000000000000000000000602082015250565b600061343860248361251f565b9150613443826133dc565b604082019050919050565b600060208201905081810360008301526134678161342b565b9050919050565b600061347a8284612c6c565b915081905092915050565b7f4552433732313a20617070726f766520746f2063616c6c657200000000000000600082015250565b60006134bb60198361251f565b91506134c682613485565b602082019050919050565b600060208201905081810360008301526134ea816134ae565b9050919050565b7f4552433732313a207472616e7366657220746f206e6f6e20455243373231526560008201527f63656976657220696d706c656d656e7465720000000000000000000000000000602082015250565b600061354d60328361251f565b9150613558826134f1565b604082019050919050565b6000602082019050818103600083015261357c81613540565b9050919050565b7f4e487b7100000000000000000000000000000000000000000000000000000000600052601160045260246000fd5b60006135bd826125c6565b91506135c8836125c6565b92508282019050808211156135e0576135df613583565b5b92915050565b60006135f1826125c6565b91506135fc836125c6565b92508261360c5761360b612cbf565b5b828204905092915050565b6000613622826125c6565b915061362d836125c6565b925082820261363b816125c6565b9150828204841483151761365257613651613583565b5b5092915050565b7f45524337323155524953746f726167653a2055524920736574206f66206e6f6e60008201527f6578697374656e7420746f6b656e000000000000000000000000000000000000602082015250565b60006136b5602e8361251f565b91506136c082613659565b604082019050919050565b600060208201905081810360008301526136e4816136a8565b9050919050565b60006020601f8301049050919050565b600082821b905092915050565b6000600883026137387fffffffffffffffffffffffffffffffffffffffffffffffffffffffffffffffff826136fb565b61374286836136fb565b95508019841693508086168417925050509392505050565b6000819050919050565b600061377f61377a613775846125c6565b61375a565b6125c6565b9050919050565b6000819050919050565b61379983613764565b6137ad6137a582613786565b848454613708565b825550505050565b600090565b6137c26137b5565b6137cd818484613790565b505050565b5b818110156137f1576137e66000826137ba565b6001810190506137d3565b5050565b601f8211156138365761380781612feb565b613810846136eb565b8101602085101561381f578190505b61383361382b856136eb565b8301826137d2565b50505b505050565b600082821c905092915050565b60006138596000198460080261383b565b1980831691505092915050565b60006138728383613848565b9150826002028217905092915050565b61388b82612514565b67ffffffffffffffff8111156138a4576138a3612811565b5b6138ae8254612a2e565b6138b98282856137f5565b600060209050601f8311600181146138ec57600084156138da578287015190505b6138e48582613866565b86555061394c565b601f1984166138fa86612feb565b60005b82811015613922578489015182556001820191506020850194506020810190506138fd565b8683101561393f578489015161393b601f891682613848565b8355505b6001600288020188555050505b505050505050565b6000606082019050818103600083015261396e818661256b565b905061397d6020830185612771565b61398a604083018461265b565b949350505050565b600061399d826125c6565b91506139a8836125c6565b92508282039050818111156139c0576139bf613583565b5b92915050565b600081519050919050565b600082825260208201905092915050565b60006139ed826139c6565b6139f781856139d1565b9350613a07818560208601612530565b613a108161255a565b840191505092915050565b6000608082019050613a30600083018761265b565b613a3d602083018661265b565b613a4a6040830185612771565b8181036060830152613a5c81846139e2565b905095945050505050565b600081519050613a7681612485565b92915050565b600060208284031215613a9257613a9161244f565b5b6000613aa084828501613a67565b91505092915050565b7f4552433732313a206d696e7420746f20746865207a65726f2061646472657373600082015250565b6000613adf60208361251f565b9150613aea82613aa9565b602082019050919050565b60006020820190508181036000830152613b0e81613ad2565b9050919050565b7f4552433732313a20746f6b656e20616c7265616479206d696e74656400000000600082015250565b6000613b4b601c8361251f565b9150613b5682613b15565b602082019050919050565b60006020820190508181036000830152613b7a81613b3e565b905091905056fe416e204e465420772f20494420257320686173206265656e206d696e74656420746f2025734142434445464748494a4b4c4d4e4f505152535455565758595a6162636465666768696a6b6c6d6e6f707172737475767778797a303132333435363738392b2fa2646970667358221220c6e4b77a49591c52113d449ae1c292c5b7dc5db5677d8b5f75fd261de3fda13464736f6c634300081100333c73766720786d6c6e733d27687474703a2f2f7777772e77332e6f72672f323030302f73766727207072657365727665417370656374526174696f3d27784d696e594d696e206d656574272076696577426f783d273020302033353020333530273e3c7374796c653e2e62617365207b2066696c6c3a2077686974653b20666f6e742d66616d696c793a2073657269663b20666f6e742d73697a653a20323470783b207d3c2f7374796c653e3c726563742077696474683d273130302527206865696768743d2731303025272066696c6c3d27272f3e3c7465787420783d273530252720793d273530252720636c6173733d27626173652720646f6d696e616e742d626173656c696e653d276d6964646c652720746578742d616e63686f723d276d6964646c65273e",
  "linkReferences": {},
  "deployedLinkReferences": {}
}